:020000040800F2
:100000007806002081010008AB0A0008A90A000850
:1000100000000000000000000000000000000000E0
:10002000000000000000000000000000AF0A00080F
:100030000000000000000000AD0A0008B10A00083E
:100040009301000893010008930100089301000840
:100050009301000893010008930100089301000830
:100060009301000893010008930100089301000820
:100070009301000893010008930100089301000810
:100080009301000893010008930100089301000800
:1000900093010008930100089301000893010008F0
:1000A00093010008930100089301000893010008E0
:1000B00093010008930100089301000893010008D0
:1000C00000F002F800F04CF812A030C808382418EC
:1000D0002D18AC4201D100F043F80FCCA246AB463C
:1000E0000CA730CF2D1B083F3F197C427F1E544484
:1000F0002D090426F441641EAC4201D300F030F80F
:100100000126334200D0FB1A3343984754465D46DC
:10011000DFE700002812000048120000103A02D366
:1001200078C878C1FAD8520701D330C830C101D598
:1001300004680C6070470000704700000023002432
:1001400000250026103A01D378C1FBD8520700D30E
:1001500030C100D50B6070471FB51FBD10B510BD75
:1001600000F02DF81146FFF7F7FF00F0A7FC00F0B4
:1001700045F803B4FFF7F2FF03BC00F04BF80000B2
:100180000748804707480047FEE7FEE7FEE7FEE72F
:10019000FEE7FEE704480549054A064B70470000A4
:1001A000B90A0008C1000008780000207806002085
:1001B000780200207802002070477047704775462B
:1001C00000F024F8AE46050069465346C008C0005A
:1001D000854618B020B5FFF7DDFF60BCB6460026A7
:1001E0000027C0C5C0C5C0C5C0C5C0C5C0C5C0C545
:1001F000C0C5403D490849008D46704710B50446CA
:10020000C046C0462046FFF7B4FF10BD0048704707
:100210001000002001491820ABBEFEE726000200B6
:1002200070470000054800687047C0461A480078CB
:1002300002490A68101808607047C0467000002024
:1002400010B5D748016810220A43026000242046F6
:1002500000F004F800F022F8204610BD70B5044606
:100260007D20C0000C4E317800F0C8FE0146D64813
:10027000006800F0C3FE00F0FDFB0125032C08D848
:10028000002806D10025E84321462A4600F01CF844
:100290007460284670BDC0460000002082B0094846
:1002A0000168012211430160016811400191019927
:1002B000110742680A434260406808400090009875
:1002C00002B0704718100240002805D403220346EC
:1002D00093430A4A9A1803E00C220240064BD218B4
:1002E0008007C00E8901C9B28140FF238340106896
:1002F000984308431060704714ED00E000E400E00C
:10030000F0B585B004468078C0074C4B4FD0012033
:10031000039001071A1F10680840029006D1106868
:1003200008431060106808400490049800920191FE
:10033000434E3068C00513D4039807023068384331
:100340003060FFF76FFF05463068384208D1FFF78D
:1003500069FF401B6428F7D90325284605B0F0BD86
:1003600003252802354B1968014012D0626802400B
:1003700091420ED00398000419681A6802431A606B
:100380001A6882431A6008462E4A10401860C8074F
:1003900045D118682B4908406168014319600298EB
:1003A000002804D1009A10680199884310602068E1
:1003B000C10709D181070FD4810616D481031CD44B
:1003C00000254005C9D521E0196903229143A2689F
:1003D0000A431A618107EFD5032109041A698A4388
:1003E000E168114319618106E8D51969102291432A
:1003F00022690A431A618103E2D519698022914377
:10040000A2690A431A6100254005A6D51869402152
:100410008843616901431961284605B0F0BDFFF7C3
:1004200001FF0646604F054B18688007B1D4FFF7FF
:10043000F9FE801BB842F6D98FE7C0462010024073
:1004400000700040FFFCFFFFF0B581B0002846D0EF
:100450000446534A1368012003408B4208D21368B4
:100460000126B3430B431360126832408A4237D1EE
:10047000009121688A074B4B10D54A0706D5072201
:1004800012021B681343474A1360464B1A68F02355
:100490009A43A3681343434A1360424BC90722D1CE
:1004A0003F49086801263040009A904205D9086803
:1004B000B04308600868C00712D12078400706D50D
:1004C0000720000219688143E068084318601A6831
:1004D0001007810F3548022912D2044650E0012648
:1004E000304601B0F0BD616803290DD01A1F022902
:1004F0000FD0012912D1126892030646F0D511E0FF
:10050000032926D12A4C3BE01A6B92030646E7D515
:1005100008E0126892010646E2D503E012689207ED
:100520000646DDD518680326B04308431860FFF778
:1005300079FE07461C4D1B4B18680C210140606872
:1005400080008142ACD0FFF76DFEC01BA842F2D9FB
:10055000C6E70321CB031349896A0F240C401549D0
:10056000095D94021A40240F134D2C5D9A4202D06B
:1005700033049A4200E00E4800F040FD4443094B2A
:1005800018680006000F0D49085CC4400E4804605E
:1005900000263046FFF762FE304601B0F0BDC0468F
:1005A00000200240041002408813000000127A006C
:1005B000006CDC021212000802120008F21100089E
:1005C000014800687047C04608000020F0B587B0B9
:1005D00004460120002C00D145E204902078C00799
:1005E000F94E05940CD071680C200140042900D00C
:1005F00090E03068800303D56068002800D120E1D6
:100600002078800721D570680007800F0ED07068B1
:100610000C210140082900D09DE00320C00371682F
:1006200001400120C003814200D094E0306880077F
:10063000059C03D5E068012800D002E13068F8216C
:1006400088432169C90001433160059C2078000777
:1006500024D42078400737D42078C00600D4D3E0D3
:1006600005984069411D00D1C2E0012800D030E169
:10067000706B042101437163706B0121014371634D
:10068000FFF7D0FD0546706B800700D5B4E0FFF79B
:10069000C9FD411B03200229F5D9E4E1706AE16933
:1006A000002900D181E0012108437062FFF7BAFD03
:1006B0000546706A8007CCD4FFF7B4FD401B0228C2
:1006C000F7D9032007B0F0BD012003900107F069BE
:1006D0000840029006D1F0690843F061F0690840D3
:1006E000069006980191E14F3868C0054AD40398F6
:1006F0000402386820433860FFF794FD05463868E7
:1007000020423FD1FFF78EFD401B6428F7D903201C
:1007100007B0F0BD71680140082908D10320C0036B
:100720007168014001200004814200D161E76168E5
:1007300001204704002900D117E1052900D12BE150
:10074000012900D12CE1010432688A43326081041E
:100750003068884327E13068059CE168002936D07D
:10076000012108433060FFF75DFD054630688007D2
:1007700000D563E7FFF756FD401B0228F6D903209A
:1007800007B0F0BD05988068002800D1B6E00528C4
:1007900000D1C9E0012800D1CAE0306A039988433A
:1007A0003062306A04218843C5E0012188437062C9
:1007B000FFF738FD0546706A800700D449E7FFF768
:1007C00031FD401B0228F6D9032007B0F0BD0121FE
:1007D00088433060FFF726FD05463068800700D467
:1007E00033E7FFF71FFD411B03200229F5D93AE14A
:1007F000706B042188437063706BF82188430599FE
:100800008969C900014371630598007880060BD59A
:1008100071680C2001400C2939D1706B800303D51D
:100820000598006A01280CD10598446A002C00D173
:10083000E1E070680C210140082905D1012C00D0AD
:10084000C4E0049807B0F0BD0120020631680492AC
:10085000914331604706FFF7E5FC0546022C0BD1BA
:10086000049C3068384200D1DEE0FFF7DBFC411B1E
:1008700003200229F5D9F6E03068384200D1BAE009
:10088000FFF7D0FC411B03200229F5D9EBE071688A
:100890000140082905D10320C0037168014081424D
:1008A000BBD0706B0599096A002900D1A9E001212C
:1008B0000A04104370634C04FFF7B4FC0546706BE8
:1008C0002042B1D1FFF7AEFC411B03200229F6D92B
:1008D000C9E0706B042101437163706B012188438F
:1008E0007063FFF79FFC0546706B80078CD5FFF7A0
:1008F00099FC411B03200229F6D9B4E0306A039920
:1009000088433062306A042188433062584CFFF7D4
:1009100089FC0546306A80071DD5FFF783FC411B23
:100920000320A142F6D99EE0306A042101433162DE
:10093000306A0399084330624D4CFFF773FC05465B
:10094000306A800707D4FFF76DFC401BA042F7D93F
:10095000032007B0F0BD02980028059C00D07BE67C
:10096000F06901998843F06176E6010432688A43B0
:1009700032608004316881433160FFF753FC0546E3
:10098000059C3068384200D13AE6FFF74BFC411B2A
:1009900003206429F5D966E0810432680A43326095
:1009A0000104306808433060FFF73CFC05463068BE
:1009B000384200D024E6FFF735FC401B6428F6D906
:1009C000032007B0F0BDC046001002400320C20360
:1009D00070680240F16A059CA36A9A42049D0DD199
:1009E0000F221140236B994208D191040840E16A1B
:1009F0008842284637D1002007B0F0BD284607B00E
:100A0000F0BD01210A04904370634C04FFF70AFC17
:100A10000546706B204200D106E7FFF703FC411B3F
:100A200003200229F5D91EE0F06A0F218843059AB8
:100A3000116B0143F1627B20C00371688143D06A6E
:100A40000843916A01437160306820433060FFF7CA
:100A5000E9FB044630683842CDD1FFF7E3FB011BC8
:100A600003200229F6D907B0F0BDC046007000404F
:100A700088130000401E010E01D001207047074975
:100A8000074A5060074803680B400321890759183B
:100A9000016000209060072111607047FFFFFF0098
:100AA00010E000E020ED00E0FEE7FEE77047704751
:100AB00080B5FFF7BBFB80BD704700009EB0FFF71D
:100AC000BFFB002514951595189517951695139548
:100AD000129501201990222111911D9501051C915B
:100AE000C1031B9102241A941490102015900B95A9
:100AF0000A9509950895079511A8FFF767FD002845
:100B000003D0EFF3108072B6FEE710950F950E94A8
:100B100007200D900DA801242146FFF795FC002821
:100B200003D0EFF3108072B6FEE70C9560040690D8
:100B300006A8FFF7E5FB002803D0EFF3108072B69C
:100B4000FEE7A00443490A6802430A60E2040B6816
:100B500013430B608A6802438A600F2528053E49CB
:100B60000A688243052040051018086011208002A1
:100B70004A6A02434A62FFF723FDE121490200F07D
:100B80003DFA36490A46103A106008461C38026899
:100B90000D2305931A43026055200003304E324660
:100BA000143A136803431360AA013346103B1D68CF
:100BB00095431D6032460C3A136883431360FF204F
:100BC00000033246083A13688343136030684022BA
:100BD00004929043306030688022039290433060EA
:100BE00022023068029290433060620230680192C3
:100BF000904330601B4D1C4E1C4A00E008890C6875
:100C0000A4060BD508890C68A40607D508890C68CA
:100C1000A40603D508890C68A406EFD4C4B2623CCC
:100C2000102C5DD86400C0467C44A4886400A744AE
:100C30001F005700570057005700A90057005700E2
:100C400057005700570057005700EF005700570054
:100C50003601C04614100240000400481C48004001
:100C600014080048071300089D1200086A120008C3
:100C70000A238B81059B8B815427DE4C07E08F81F3
:100C8000E778E41CDB4B33339C4200D15BE10B681B
:100C90001B0608D40B681B0605D40B681B0602D480
:100CA0000B681B06F3D58F8167780B681B0608D489
:100CB0000B681B0605D40B681B0602D40B681B06C9
:100CC000F3D58F81A7780B681B06D8D40B681B0659
:100CD000D5D40B681B06D2D40B681B06F3D5CEE720
:100CE0000A27C54C02E08F812779241D0B681B065B
:100CF00008D40B681B0605D40B681B0602D40B68CE
:100D00001B06F3D58F8167780B681B0608D40B6828
:100D10001B0605D40B681B0602D40B681B06F3D513
:100D20008F81A7780B681B0608D40B681B0605D4B7
:100D30000B681B0602D40B681B06F3D58F81AE4BE4
:100D40004733E71C9F420DD0E7780B681B06CAD4D7
:100D50000B681B06C7D40B681B06C4D40B681B06A4
:100D6000F3D5C0E70B689B0600D548E70B689B06E8
:100D700000D544E70B689B0600D540E70B689B064F
:100D8000F0D53CE70A238B81059B8B8154272C46A9
:100D900007E08F812779241D2B4634339C4200D1F4
:100DA000E6E00B681B0608D40B681B0605D40B682D
:100DB0001B0602D40B681B06F3D58F8167780B687E
:100DC0001B0608D40B681B0605D40B681B0602D44F
:100DD0000B681B06F3D58F81A7780B681B0608D418
:100DE0000B681B0605D40B681B0602D40B681B0698
:100DF000F3D58F81E7780B681B06CAD40B681B06F6
:100E0000C7D40B681B06C4D40B681B06F3D5C0E718
:100E10000A238B81059B8B815427344602E08F8106
:100E20002779241D0B681B0608D40B681B0605D404
:100E30000B681B0602D40B681B06F3D58F81334663
:100E40003533671C9F4200D1A7E067780B681B060B
:100E500008D40B681B0605D40B681B0602D40B686C
:100E60001B06F3D58F81A7780B681B0608D40B6887
:100E70001B0605D40B681B0602D40B681B06F3D5B2
:100E80008F81E7780B681B06C9D40B681B06C6D494
:100E90000B681B06C3D40B681B06F3D5BFE70A24F7
:100EA0008C81059B8B815427144607E08F816779DD
:100EB000641D134632339C4200D183E00B681B064D
:100EC00008D40B681B0605D40B681B0602D40B68FC
:100ED0001B06F3D58F8167780B681B0608D40B6857
:100EE0001B0605D40B681B0602D40B681B06F3D542
:100EF0008F81A7780B681B0608D40B681B0605D4E6
:100F00000B681B0602D40B681B06F3D58F81E778AC
:100F10000B681B0608D40B681B0605D40B681B0660
:100F200002D40B681B06F3D58F8127790B681B064B
:100F3000BCD40B681B06B9D40B681B06B6D40B686F
:100F40001B06F3D5B2E72A4C2368039F7B4023603E
:100F50000B689B0600D552E60B689B0600D54EE653
:100F60000B689B0600D54AE60B689B06F0D546E663
:100F70001F4C2368019F7B4023600B689B0600D5B4
:100F80003DE60B689B0600D539E60B689B0600D54D
:100F900035E60B689B06F0D531E6154C2368029FB9
:100FA0007B4023600B689B0600D528E60B689B06F8
:100FB00000D524E60B689B0600D520E60B689B064F
:100FC000F0D51CE60A4C2368049F7B4023600B6825
:100FD0009B0600D513E60B689B0600D50FE60B6851
:100FE0009B0600D50BE60B689B06F0D507E6C046CE
:100FF00014080048D31200082212000843088B424C
:101000001AD3002203098B4279D3030A8B425ED3A1
:10101000030B8B4242D3030C8B4227D30902FF22DE
:1010200012BA030C8B4202D31212090203D0030B33
:101030008B4233D31AE0D3E0411A8041401C704701
:1010400003460B4371D443088B42F5D300220309B6
:101050008B4254D3030A8B4239D3030B8B421DD3EB
:10106000030C8B4202D394466EE0090AC30B8B42F9
:1010700001D3CB03C01A5241830B8B4201D38B03A4
:10108000C01A5241430B8B4201D34B03C01A524149
:10109000030B8B4201D30B03C01A5241C30A8B428C
:1010A00001D3CB02C01A5241830A8B4201D38B0277
:1010B000C01A5241430A8B4201D34B02C01A52411B
:1010C000030A8B4201D30B02C01A5241CDD2C3098D
:1010D0008B4201D3CB01C01A524183098B4201D309
:1010E0008B01C01A524143098B4201D34B01C01AF4
:1010F000524103098B4201D30B01C01A5241C3086C
:101100008B4201D3CB00C01A524183088B4201D3DA
:101110008B00C01A524143088B4201D34B00C01AC6
:101120005241411A524110007047CA0F00D0494243
:10113000031000D34042534000229C4603098B42D7
:101140002DD3030A8B4212D38901FC2212BA030A5F
:101150008B420CD3890192118B4208D389019211E1
:101160008B4204D3890137D0921100E08909C30969
:101170008B4201D3CB01C01A524183098B4201D368
:101180008B01C01A524143098B4201D34B01C01A53
:10119000524103098B4201D30B01C01A5241C308CB
:1011A0008B4201D3CB00C01A524183088B4201D33A
:1011B0008B00C01A5241D9D243088B4201D34B0055
:1011C000C01A5241411A00D20146524110466346AC
:1011D0005B1000D34042704763465B1000D340422F
:1011E00001B50021004201D0C9430846C046C046AF
:1011F00002BD000000000000000001020304060719
:10120000080902030405060708090A0B0C0D0E0F56
:1012100010100102030405060708090A0B0C0D0E45
:101220000F100A54686174206973206E6F74206116
:101230002076616C696420636F6C6F7220636861F3
:10124000726163746572212053656C6563742066F6
:10125000726F6D3A202272222C202262222C2022D0
:101260006F222C202267223A2000546F67676C653A
:101270006420636F6C6F723A205265642E20506C4C
:101280006561736520696E70757420796F75722061
:101290006E65787420636F6C6F723A2000546F67CC
:1012A000676C656420636F6C6F723A204F72616E79
:1012B00067652E20506C6561736520696E7075746A
:1012C00020796F7572206E65787420636F6C6F7211
:1012D0003A2000546F67676C656420636F6C6F72AF
:1012E0003A20426C75652E20506C656173652069EB
:1012F0006E70757420796F7572206E6578742063D6
:101300006F6C6F723A2000546F67676C656420637E
:101310006F6C6F723A20477265656E2E20506C6557
:1013200061736520696E70757420796F7572206EB7
:1013300065787420636F6C6F723A20006013000848
:1013400000000020100000001C01000870130008BD
:1013500010000020680600003C01000800000000AA
:10136000010000000400000000127A0000000000EC
:04000005080000C12E
:00000001FF
