:020000040800F2
:100000007806002081010008430D0008410D00081A
:1000100000000000000000000000000000000000E0
:10002000000000000000000000000000470D000874
:100030000000000000000000450D0008490D000808
:100040009301000893010008930100089301000840
:100050009301000893010008930100089301000830
:100060009301000893010008930100089301000820
:100070009301000893010008930100089301000810
:100080009301000893010008930100089301000800
:1000900093010008930100089301000893010008F0
:1000A00093010008930100089301000893010008E0
:1000B00093010008930100089301000893010008D0
:1000C00000F002F800F04CF812A030C808382418EC
:1000D0002D18AC4201D100F043F80FCCA246AB463C
:1000E0000CA730CF2D1B083F3F197C427F1E544484
:1000F0002D090426F441641EAC4201D300F030F80F
:100100000126334200D0FB1A3343984754465D46DC
:10011000DFE700008C120000AC120000103A02D39E
:1001200078C878C1FAD8520701D330C830C101D598
:1001300004680C6070470000704700000023002432
:1001400000250026103A01D378C1FBD8520700D30E
:1001500030C100D50B6070471FB51FBD10B510BD75
:1001600000F02DF81146FFF7F7FF00F0F3FD00F067
:1001700045F803B4FFF7F2FF03BC00F04BF80000B2
:100180000748804707480047FEE7FEE7FEE7FEE72F
:10019000FEE7FEE704480549054A064B70470000A4
:1001A000510D0008C10000087800002078060020EA
:1001B000780200207802002070477047704775462B
:1001C00000F024F8AE46050069465346C008C0005A
:1001D000854618B020B5FFF7DDFF60BCB6460026A7
:1001E0000027C0C5C0C5C0C5C0C5C0C5C0C5C0C545
:1001F000C0C5403D490849008D46704710B50446CA
:10020000C046C0462046FFF7B4FF10BD0048704707
:100210001000002001491820ABBEFEE726000200B6
:1002200070470000F0B582B000929A4B1C46143C17
:100230002268994D2A402260012216044700374364
:100240002068384320602068944E30402060560378
:10025000206830432060186840081A681209D243A9
:100260008243D00717D0186840081A681209D24391
:100270008243D0070FD0186840081A681209D24389
:100280008243D00707D0186840081A681209D24381
:100290008243D007DFD10F2082011868800707D47E
:1002A0001868C00605D57E4908681043086000E05C
:1002B00019611868400608D41868400605D4186803
:1002C000400602D418684006F3D520682840206014
:1002D0002068384320601046403021680143216087
:1002E000216831432160196889081D682D09ED4393
:1002F0008D43E90717D0196889081D682D09ED435A
:100300008D43E9070FD0196889081D682D09ED4351
:100310008D43E90707D0196889081D682D09ED4349
:100320008D43E907DFD11968490709D41D68FF210A
:100330000191ED0606D55A490D6815430D6001E09F
:10034000D96801911D686D0608D41D686D0605D435
:100350001D686D0602D41D686D06F3D525684E49EB
:100360000D40256025683D43256025684B490D40BB
:1003700025602568354325601D686D0819680909E1
:10038000C943A943C90717D0196849081D682D0931
:10039000ED438D43E9070FD0196849081D682D0901
:1003A000ED438D43E90707D0196849081D682D09F9
:1003B000ED438D43E907DFD1196889070DD419682A
:1003C000C906354D0CD500963549096811433E469E
:1003D000334F39603746009E02E0009919612E4D77
:1003E0001968490608D41968490605D419684906E8
:1003F00002D419684906F3D5216829402160216893
:100400003943216021680143216020683043206026
:100410001868800819680909C9438143C80717D0BB
:100420001868800819680909C9438143C8070FD0B3
:100430001868800819680909C9438143C80707D0AB
:100440001868800819680909C9438143C807DFD1C2
:10045000186840070AD41968FF20C90607D5104953
:1004600014460A4609682143116000E0D8681968FB
:10047000490608D41968490605D41968490602D402
:1004800019684906F3D50199C9B20002401880B233
:1004900002B0F0BD1858004000FC80FFFFFBFFFFDA
:1004A00014080048B0B5044600F00CF80546601C7E
:1004B00002D021480078041900F004F8401BA04243
:1004C000FAD3B0BD054800687047C0461A480078A6
:1004D00002490A68101808607047C0467000002082
:1004E00010B5D748016810220A4302600024204654
:1004F00000F004F800F022F8204610BD70B5044664
:100500007D20C0000C4E317800F036FE0146D44804
:10051000006800F031FE00F0F9FB0125032C08D83B
:10052000002806D10025E84321462A4600F01CF8A1
:100530007460284670BDC0460000002082B00948A3
:100540000168012211430160016811400191019984
:10055000110742680A4342604068084000900098D2
:1005600002B0704718100240002805D40322034649
:1005700093430A4A9A1803E00C220240064BD21811
:100580008007C00E8901C9B28140FF2383401068F3
:10059000984308431060704714ED00E000E400E069
:1005A000F0B585B004468078C0074C4B4FD0012091
:1005B000039001071A1F10680840029006D11068C6
:1005C000084310601068084004900498009201915C
:1005D000434E3068C00513D403980702306838438F
:1005E0003060FFF76FFF05463068384208D1FFF7EB
:1005F00069FF401B6428F7D90325284605B0F0BDE4
:1006000003252802354B1968014012D06268024068
:1006100091420ED00398000419681A6802431A60C8
:100620001A6882431A6008462E4A10401860C807AC
:1006300045D118682B490840616801431960029848
:10064000002804D1009A106801998843106020683E
:10065000C10709D181070FD4810616D481031CD4A8
:1006600000254005C9D521E0196903229143A268FC
:100670000A431A618107EFD5032109041A698A43E5
:10068000E168114319618106E8D519691022914387
:1006900022690A431A618103E2D5196980229143D4
:1006A000A2690A431A6100254005A6D518694021B0
:1006B0008843616901431961284605B0F0BDFFF721
:1006C00001FF0646604F054B18688007B1D4FFF75D
:1006D000F9FE801BB842F6D98FE7C04620100240D1
:1006E00000700040FFFCFFFFF0B581B0002846D04D
:1006F0000446534A1368012003408B4208D2136812
:100700000126B3430B431360126832408A4237D14B
:10071000009121688A074B4B10D54A0706D507225E
:1007200012021B681343474A1360464B1A68F023B2
:100730009A43A3681343434A1360424BC90722D12B
:100740003F49086801263040009A904205D9086860
:10075000B04308600868C00712D12078400706D56A
:100760000720000219688143E068084318601A688E
:100770001007810F3548022912D2044650E00126A5
:10078000304601B0F0BD616803290DD01A1F02295F
:100790000FD0012912D1126892030646F0D511E05C
:1007A000032926D12A4C3BE01A6B92030646E7D573
:1007B00008E0126892010646E2D503E0126892074B
:1007C0000646DDD518680326B04308431860FFF7D6
:1007D00079FE07461C4D1B4B18680C2101406068D0
:1007E00080008142ACD0FFF76DFEC01BA842F2D959
:1007F000C6E70321CB031349896A0F240C4015492E
:10080000095D94021A40240F134D2C5D9A4202D0C8
:1008100033049A4200E00E4800F0AEFC4443094B1A
:1008200018680006000F0D49085CC4400C480460BD
:1008300000263046FFF762FE304601B0F0BDC046EC
:1008400000200240041002408813000000127A00C9
:10085000006CDC028E1300087E1300086E13000883
:1008600008000020F0B587B004460120002C00D11C
:1008700045E204902078C007F94E05940CD07168C9
:100880000C200140042900D090E03068800303D59B
:100890006068002800D120E12078800721D57068A9
:1008A0000007800F0ED070680C210140082900D08D
:1008B0009DE00320C003716801400120C003814214
:1008C00000D094E030688007059C03D5E0680128DB
:1008D00000D002E13068F82188432169C900014352
:1008E0003160059C2078000724D42078400737D455
:1008F0002078C00600D4D3E005984069411D00D19E
:10090000C2E0012800D030E1706B04210143716323
:10091000706B012101437163FFF7D4FD0546706BD5
:10092000800700D5B4E0FFF7CDFD411B032002296D
:10093000F5D9E4E1706AE169002900D181E0012183
:1009400008437062FFF7BEFD0546706A8007CCD48D
:10095000FFF7B8FD401B0228F7D9032007B0F0BD10
:10096000012003900107F0690840029006D1F06968
:100970000843F061F0690840069006980191E14F44
:100980003868C0054AD403980402386820433860A8
:10099000FFF798FD0546386820423FD1FFF792FDEA
:1009A000401B6428F7D9032007B0F0BD71680140EF
:1009B000082908D10320C003716801400120000408
:1009C000814200D161E7616801204704002900D11C
:1009D00017E1052900D12BE1012900D12CE1010407
:1009E00032688A43326081043068884327E1306886
:1009F000059CE168002936D0012108433060FFF7EB
:100A000061FD05463068800700D563E7FFF75AFDB2
:100A1000401B0228F6D9032007B0F0BD0598806876
:100A2000002800D1B6E0052800D1C9E0012800D196
:100A3000CAE0306A039988433062306A04218843EF
:100A4000C5E0012188437062FFF73CFD0546706AEE
:100A5000800700D449E7FFF735FD401B0228F6D98F
:100A6000032007B0F0BD012188433060FFF72AFD65
:100A700005463068800700D433E7FFF723FD411BAC
:100A800003200229F5D93AE1706B04218843706391
:100A9000706BF821884305998969C9000143716326
:100AA0000598007880060BD571680C2001400C2950
:100AB00039D1706B800303D50598006A01280CD1E9
:100AC0000598446A002C00D1E1E070680C210140D7
:100AD000082905D1012C00D0C4E0049807B0F0BD6E
:100AE0000120020631680492914331604706FFF706
:100AF000E9FC0546022C0BD1049C3068384200D139
:100B0000DEE0FFF7DFFC411B03200229F5D9F6E008
:100B10003068384200D1BAE0FFF7D4FC411B032013
:100B20000229F5D9EBE071680140082905D10320BD
:100B3000C003716801408142BBD0706B0599096A9E
:100B4000002900D1A9E001210A04104370634C047C
:100B5000FFF7B8FC0546706B2042B1D1FFF7B2FC3D
:100B6000411B03200229F6D9C9E0706B042101431F
:100B70007163706B012188437063FFF7A3FC054626
:100B8000706B80078CD5FFF79DFC411B0320022969
:100B9000F6D9B4E0306A039988433062306A0421A0
:100BA00088433062584CFFF78DFC0546306A800759
:100BB0001DD5FFF787FC411B0320A142F6D99EE01B
:100BC000306A042101433162306A0399084330627C
:100BD0004D4CFFF777FC0546306A800707D4FFF7D6
:100BE00071FC401BA042F7D9032007B0F0BD02986A
:100BF0000028059C00D07BE6F06901998843F061EC
:100C000076E6010432688A433260800431688143A9
:100C10003160FFF757FC0546059C3068384200D12B
:100C20003AE6FFF74FFC411B03206429F5D966E043
:100C3000810432680A43326001043068084330603E
:100C4000FFF740FC05463068384200D024E6FFF745
:100C500039FC401B6428F6D9032007B0F0BDC0461C
:100C6000001002400320C20370680240F16A059C34
:100C7000A36A9A42049D0DD10F221140236B994221
:100C800008D191040840E16A8842284637D1002003
:100C900007B0F0BD284607B0F0BD01210A0490431B
:100CA00070634C04FFF70EFC0546706B204200D1C8
:100CB00006E7FFF707FC411B03200229F5D91EE0D8
:100CC000F06A0F218843059A116B0143F1627B2082
:100CD000C00371688143D06A0843916A014371601F
:100CE000306820433060FFF7EDFB0446306838423F
:100CF000CDD1FFF7E7FB011B03200229F6D907B08E
:100D0000F0BDC0460070004088130000401E010E78
:100D100001D0012070470749074A5060074803681F
:100D20000B400321890759180160002090600721BA
:100D300011607047FFFFFF0010E000E020ED00E0D1
:100D4000FEE7FEE77047704780B5FFF7BFFB80BD49
:100D5000704700009EB0FFF7C3FB0027149715975C
:100D60001897179716971397129701201990222119
:100D700011911D9701051C91C5031B9502241A941E
:100D80001490102015900B970A97099708970797CA
:100D900011A8FFF767FD002803D0EFF3108072B6AB
:100DA000FEE710970F970E9407200D900DA80124D1
:100DB0002146FFF799FC002803D0EFF3108072B6AC
:100DC000FEE705950C976504069506A8FFF7E8FB76
:100DD000002803D0EFF3108072B6FEE70195A0045F
:100DE000DD490A6802430A60E0040A6802430A60B7
:100DF000A0058A6802438A6003229105D7480368E8
:100E00008B43E10559180160E10243680B434360DD
:100E10002103436A0B434362910603688B43E10657
:100E200059180160650343682B43436005231B0584
:100E30002146446A1C4344620B0704681C43046057
:100E40008C034368A3434360436900942343436195
:100E50009207036893430360C14C2246143A10681A
:100E6000084310602046103803688B4303602368F2
:100E70000B43236055231B0316681E431660B94EAF
:100E80004036026802963240026020460C38026802
:100E90009A430260FF2000032246083A1368834306
:100EA0001360B1480246083A1368B04E1E431660FC
:100EB0000246183A136804910B4313600346143B2F
:100EC0001A68AB490A401A601A68AA490A431A60AC
:100ED0001A68A4490A401A601A6803952A431A60DE
:100EE0000268520806683609F6439643F20717D09F
:100EF0000268520806683609F6439643F2070FD097
:100F00000268520806683609F6439643F20707D08E
:100F10000268520806683609F6439643F207DFD1A5
:100F20000F26B2010168890707D40168C906914EEE
:100F300005D521681143216001E006618D4E0168ED
:100F4000490608D40168490605D40168490602D457
:100F500001684906F3D51968854D2940196019685B
:100F600031431960114640311E680E431E601968F6
:100F7000039D294319600168890806683609F6430C
:100F80008E43F10717D00168890806683609F643D1
:100F90008E43F1070FD00168890806683609F643C9
:100FA0008E43F10707D00168890806683609F643C1
:100FB0008E43F107DFD10168490705D40168C906EE
:100FC0002346019D06D408E0C168C9B2D329009A1E
:100FD000019D02D11968114319600246143A116843
:100FE000634B19401160D2351168294311601168B3
:100FF0005C4B194011601168039B19431160016833
:10100000490802681209D2438A43D10717D0016800
:10101000490802681209D2438A43D1070FD00168F8
:10102000490802681209D2438A43D10707D00168F0
:10103000490802681209D2438A43D107DFD10499D3
:1010400049020391016889070AD402682168D2061F
:101050000DD4039A114321602168C022914308E016
:10106000216880220A4322602021016102E040229F
:10107000114321600168490802681209D2438A437A
:10108000D10717D00168490802681209D2438A4380
:10109000D1070FD00168490802681209D2438A4378
:1010A000D10707D00168490802681209D2438A4370
:1010B000D107DFD10168890705D5216880220A435D
:1010C00022600B2101610168490608D401684906C4
:1010D00005D40168490602D401684906F3D53E46A5
:1010E00008E0884320602168802008432060642055
:1010F000FFF7D8F920680299084020606925282167
:1011000029222846FFF78EF839B20F182A212B2200
:101110002846FFF787F82168059B1F4207D1049AEC
:101120001202914321602168039A114306E0049A58
:101130001202114321602168039A914332B21618BA
:101140002160206840211E42CBD0084320602068E7
:1011500080218843CAE7C0461410024000040048BA
:1011600014080048FFFBFFFF18580040130F4210FF
:1011700000FC80FFD200010043088B421AD30022FA
:1011800003098B4279D3030A8B425ED3030B8B4254
:1011900042D3030C8B4227D30902FF2212BA030C5D
:1011A0008B4202D31212090203D0030B8B4233D3BA
:1011B0001AE0D3E0411A8041401C704703460B43BC
:1011C00071D443088B42F5D3002203098B4254D3D8
:1011D000030A8B4239D3030B8B421DD3030C8B4282
:1011E00002D394466EE0090AC30B8B4201D3CB03B2
:1011F000C01A5241830B8B4201D38B03C01A524158
:10120000430B8B4201D34B03C01A5241030B8B4259
:1012100001D30B03C01A5241C30A8B4201D3CB0244
:10122000C01A5241830A8B4201D38B02C01A524129
:10123000430A8B4201D34B02C01A5241030A8B422C
:1012400001D30B02C01A5241CDD2C3098B4201D344
:10125000CB01C01A524183098B4201D38B01C01AC2
:10126000524143098B4201D34B01C01A5241030939
:101270008B4201D30B01C01A5241C3088B4201D3E8
:10128000CB00C01A524183088B4201D38B00C01A95
:10129000524143088B4201D34B00C01A5241411ABC
:1012A000524110007047CA0F00D04942031000D3CA
:1012B0004042534000229C4603098B422DD3030A2F
:1012C0008B4212D38901FC2212BA030A8B420CD33F
:1012D000890192118B4208D3890192118B4204D368
:1012E000890137D0921100E08909C3098B4201D3EB
:1012F000CB01C01A524183098B4201D38B01C01A22
:10130000524143098B4201D34B01C01A5241030998
:101310008B4201D30B01C01A5241C3088B4201D347
:10132000CB00C01A524183088B4201D38B00C01AF4
:101330005241D9D243088B4201D34B00C01A5241CB
:10134000411A00D201465241104663465B1000D359
:101350004042704763465B1000D3404201B5002114
:10136000004201D0C9430846C046C04602BD000045
:101370000000000000000102030406070809020340
:101380000405060708090A0B0C0D0E0F10100102C8
:10139000030405060708090A0B0C0D0E0F100000C8
:1013A000C013000800000020100000001C0100080D
:1013B000D013000810000020680600003C0100085F
:1013C000010000000400000000127A00000000008C
:04000005080000C12E
:00000001FF
